:020000040800F2
:1000000000000220A91B00082D1A0008351A00085C
:100010003D1A0008451A00084D1A000800000000AB
:10002000000000000000000000000000551A000859
:10003000631A000800000000711A00087F1A000807
:10004000F91B0008F91B0008F91B0008F91B000840
:10005000F91B0008F91B0008F91B0008F91B000830
:10006000F91B0008F91B0008F91B0008F91B000820
:10007000F91B0008F91B0008F91B0008F91B000810
:10008000F91B0008F91B0008F91B0008F91B000800
:10009000F91B0008F91B0008F91B0008F91B0008F0
:1000A000F91B0008F91B0008F91B0008F91B0008E0
:1000B0008D1A0008F91B0008F91B0008F91B00083D
:1000C000F91B0008F91B0008F91B0008F91B0008C0
:1000D000F91B0008F91B0008F91B0008F91B0008B0
:1000E000F91B0008F91B0008F91B0008F91B0008A0
:1000F000F91B0008F91B0008F91B0008F91B000890
:10010000F91B0008F91B0008F91B0008F91B00087F
:10011000F91B0008F91B0008F91B0008F91B00086F
:10012000F91B0008F91B0008F91B0008F91B00085F
:10013000F91B0008F91B0008F91B0008F91B00084F
:10014000F91B0008F91B0008F91B0008F91B00083F
:10015000F91B0008F91B0008F91B0008F91B00082F
:10016000F91B0008F91B0008F91B0008F91B00081F
:10017000F91B0008F91B0008F91B0008000000002B
:08018000F91B0008F91B00083F
:1001880010B5054C237833B9044B13B10448AFF3C9
:1001980000800123237010BD0C0000200000000027
:1001A800E03F000808B5034B1BB103490348AFF310
:1001B800008008BD0000000010000020E03F00089B
:1001C800034613F8012B002AFBD1181A013870478F
:1001D80053B94AB9002908BF00281CBF4FF0FF31A6
:1001E8004FF0FF3000F06AB9ADF1080C6DE904CEAC
:1001F80000F006F8DDF804E0DDE9022304B07047FA
:100208002DE9F047089D0C46002B4ED194468C45AD
:100218008646B2FA82F262D94AB1C2F1200391400D
:1002280020FA03F30CFA02FC194300FA02FE4FEA23
:100238001C471FFA8CF6B1FBF7F44FEA1E4307FB85
:10024800141143EA014304FB06F199420AD91CEB55
:10025800030304F1FF3080F01281994240F20F81CC
:10026800023C6344591A1FFA8EF3B1FBF7F007FBFF
:10027800101143EA014300FB06F69E420AD91CEB23
:10028800030300F1FF3180F0FC809E4240F2F980C8
:10029800634402389B1B40EA044000211DB1D3404F
:1002A8000022C5E90032BDE8F0878B4205D90DB1BF
:1002B800C5E9000100210846F5E7B3FA83F10029F2
:1002C80046D1A34202D39042C0F0F080861A64EB74
:1002D80003030120002DE6D0C5E90063E3E7002A07
:1002E80040F09080A1EB0C044FEA1C481FFA8CF7F1
:1002F8000121B4FBF8F64FEA1E4308FB164443EA13
:10030800044307FB06F0984208D91CEB030306F1E7
:10031800FF3402D2984200F2CD8026461C1A1FFAFA
:100328008EF3B4FBF8F008FB104443EA044300FBE7
:1003380007F79F4208D91CEB030300F1FF3402D2F0
:100348009F4200F2B0802046DB1B40EA0640A5E74A
:10035800C1F120068B4022FA06F71F4320FA06FC5B
:1003680004FA01F343EA0C03F44000FA01F8380CEC
:100378004FEA1349B4FBF0FE1FFA87FC00FB1E444A
:1003880049EA04440EFB0CF9A14502FA01F20AD924
:100398003C190EF1FF3A80F08480A14540F281803B
:1003A800AEF1020E3C44A4EB09041FFA83F9B4FB36
:1003B800F0F300FB134449EA044403FB0CFCA44596
:1003C80007D93C1903F1FF3067D2A44565D9023B30
:1003D8003C4443EA0E40A0FB0293A4EB0C049C426D
:1003E800CE469C4651D34ED055B1B8EB0E0364EBC4
:1003F8000C0404FA06F6CB401E43CC40C5E9006461
:10040800002150E7C2F1200320FA03F10CFA02FCA4
:1004180024FA03F394400C434FEA1C4800FA02FE06
:100428001FFA8CF7B3FBF8F008FB1031230C43EAF2
:10043800014300FB07F1994208D91CEB030300F1C3
:10044800FF362CD299422AD9023863445B1AA4B2E7
:10045800B3FBF8F108FB113344EA034401FB07F34B
:10046800A34208D91CEB040401F1FF3613D2A342BE
:1004780011D902396444E41A41EA004139E70446D3
:10048800F0E6084606E7C845AED2B9EB020E63EBC4
:10049800070C0138A8E73146EDE7034699E73046EF
:1004A800D4E7D6467FE7634402384DE7064623463D
:1004B80008460FE7023E634430E700BF704700BFBD
:1004C80080B483B000AF0346FB80044AFB881380E6
:1004D80000BF0C37BD465DF8047B7047FEFF0F6018
:1004E80080B483B000AF0346FB80044AFB88538086
:1004F80000BF0C37BD465DF8047B7047FEFF0F60F8
:1005080080B483B000AF064B5B889BB2FB80FB884E
:100518009BB218460C37BD465DF8047B704700BF98
:10052800FEFF0F6090B583B000AF04460846114641
:100538001A462346FB800346BB800B467B80134646
:100548003B802A20FFF7BCFFFB881B0A9BB218469A
:10055800FFF7C6FFFB88DBB29BB21846FFF7C0FF68
:100568007B881B0A9BB21846FFF7BAFF7B88DBB271
:100578009BB21846FFF7B4FF2B20FFF7A1FFBB88FB
:100588001B0A9BB21846FFF7ABFFBB88DBB29BB2D6
:100598001846FFF7A5FF3B881B0A9BB21846FFF7D2
:1005A8009FFF3B88DBB29BB21846FFF799FF2C20D0
:1005B800FFF786FF00BF0C37BD4690BD90B585B0EC
:1005C80000AF0446084611461A462346FB800346F8
:1005D800BB800B467B8013463B807B88013B9AB2ED
:1005E8003B88013B9BB2B988F888FFF79BFFBB8823
:1005F800FB8110E0FB88BB8106E03B8C1846FFF7C7
:100608006FFFBB890133BB81BA897B889A42F4D3D7
:10061800FB890133FB81FA893B889A42EAD300BF00
:1006280000BF1437BD4690BD80B582B000AF034609
:10063800FB800B46BB8013467B80BB88FA88B98851
:10064800F888FFF76FFF7B881846FFF749FF00BF60
:100658000837BD4680BD90B58DB000AF044608464A
:1006680011461A462346FB800346BB800B467B8017
:1006780013463B800023BB6200237B627A88FB8899
:10068800D31A3B623A88BB88D31AFB61FB88FB60AC
:10069800BB88BB603B6A002B02DD01237B610BE05A
:1006A8003B6A002B02D100237B6105E04FF0FF334A
:1006B8007B613B6A5B423B62FB69002B02DD0123E5
:1006C8003B610BE0FB69002B02D100233B6105E095
:1006D8004FF0FF333B61FB695B42FB613A6AFB69A0
:1006E8009A4202DD3B6ABB6101E0FB69BB61002302
:1006F800FB852BE0FB689BB2BA6891B2B7F8402043
:100708001846FFF791FFBA6A3B6A1344BB627A6ADC
:10071800FB6913447B62BA6ABB699A4207DDBA6A0D
:10072800BB69D31ABB62FA687B691344FB607A6AB7
:10073800BB699A4207DD7A6ABB69D31A7B62BA68D9
:100748003B691344BB60FB8D0133FB85FB8DBA69A4
:100758009A42CFDA00BF00BF3437BD4690BD90B58E
:1007680085B002AF0446084611461A462346FB8068
:100778000346BB800B467B8013463B80BC887A8847
:10078800B988F8883B8B00932346FFF764FF3C88C1
:10079800FA88B988F8883B8B00932346FFF75BFFFC
:1007A8003C887A883988F8883B8B00932346FFF782
:1007B80052FF3C887A88B98878883B8B0093234617
:1007C800FFF749FF00BF0C37BD4690BD90B587B015
:1007D80000AF0446084611461A462346FB800346E6
:1007E800BB800B46FB7013463B8000237B75FB8860
:1007F8003B8297F82C305B08FB73FB7BDB08DBB292
:100808001A46FB7B03F00703DBB2002B14BF01235E
:100818000023DBB213449AB297F82C309BB212FB38
:1008280003F3BB81FB78203BFB70FB7B9AB2FB8810
:1008380013449BB2013B9CB297F82C309AB2BB8808
:1008480013449BB2013B9BB2B988F8882246FFF754
:1008580069FE00237B827AE097F82C300C2B28D095
:1008680097F82C30102B08D1FA787B8A3C49120172
:100878000A4413441B78FB751BE097F82C30182B9F
:100888000BD1FA78798A374813465B0013441B0169
:1008980003440B441B78FB750BE097F82C30202B96
:1008A8005AD1FA787B8A304992010A4413441B785A
:1008B800FB750023BB7544E097F83030002B20D13E
:1008C800FA7DBB7D42FA03F303F00103002B04D049
:1008D8003B881846FFF704FE03E03B8D1846FFF7F8
:1008E800FFFD7B7D01337B757B7DFA7BB3FBF2F1EA
:1008F80001FB02F29B1ADBB2002B1FD100237B7590
:1009080022E0FA7DBB7D42FA03F303F00103002BDA
:1009180005D03A88B988FB881846FFF785FEFB881A
:100928000133FB80FA883B8AD21AFB7B9A4205D1B5
:100938003B8AFB80BB880133BB8005E0BB7D01336C
:10094800BB75BB7D072BB7D97B8A01337B827A8A3B
:10095800BB899A4280D300E000BF1C37BD4690BDDA
:100968001840000808460008D857000880B485B029
:1009780000AF03460A46FB711346BB710123FB60B7
:1009880004E0FA79FB6802FB03F3FB60BB795A1EAB
:10099800BA71002BF5D1FB6818461437BD465DF8CF
:1009A800047B704790B589B004AF044608461146E9
:1009B8001A462346FB800346BB800B467B801346C2
:1009C8007B700023BB7397F828305B087B73002388
:1009D800FB7359E07C887A78FB7BD31ADBB2013B46
:1009E800DBB219460A20FFF7C1FF0346B4FBF3F157
:1009F8002A4BA3FB0123DA0813469B0013445B0030
:100A0800CA1A13463B73BB7B002B21D1FA7B7B7838
:100A1800013B9A421CDA3B7B002B17D1FB7B9AB235
:100A28007B7B9BB212FB03F39AB2FB88134498B208
:100A38003A8CB9880023029397F828300193BB8C2D
:100A4800009313462022FFF7C1FE1AE00123BB736F
:100A5800FB7B9AB27B7B9BB212FB03F39AB2FB88B7
:100A6800134498B23B7B3033DAB23C8CB98800230C
:100A7800029397F828300193BB8C00932346FFF725
:100A8800A5FEFB7B0133FB73FA7B7B789A42A1D3EB
:100A980000BF00BF1437BD4690BD00BFCDCCCCCC45
:100AA80090B587B000AF0446084611461A4623465B
:100AB800FB800346BB800B467B8013463B800023AC
:100AC8003B61FA887B8813449BB2013B9CB2BA888D
:100AD8003B8813449BB2013B9BB2B988F8882246F5
:100AE800FFF720FD0023FB8227E00023BB821DE0E7
:100AF8003B695B00BA6A13441B78FB733B695B0074
:100B08000133BA6A13441B78BB73FB7B1B021AB20E
:100B1800BB7B1BB213431BB29BB21846FFF7E0FC2A
:100B28003B6901333B61BB8A0133BB82BA8A3B888C
:100B38009A42DDD3FB8A0133FB82FA8A7B889A4288
:100B4800D3D300BF00BF1C37BD4690BD80B483B06F
:100B580000AF0346FB71FB791B09DBB203F003030B
:100B6800DBB2002B07D00A4B4FF4A0721A80084B57
:100B7800F0225A8006E0064BF0221A80044B4FF40C
:100B8800A0725A8000BF0C37BD465DF8047B7047E1
:100B98002800002080B500AF00224FF40051AA4879
:100BA80001F06CFB4FF4FA7001F096F801224FF453
:100BB8000051A54801F062FB4FF4FA7001F08CF87F
:100BC8000020FFF7C3FFD320FFF77AFCFFF798FC5C
:100BD80003461A469D4B9A80FFF792FC03461A4635
:100BE8009A4B9A80FFF78CFC03461A46974B9A80DB
:100BF800964B9B881B029AB2944B9A80FFF780FC15
:100C080003461A46914B9B8813439AB28F4B9A809E
:100C1800CF20FFF755FC0020FFF762FCC120FFF74B
:100C28005FFC3020FFF75CFCED20FFF749FC6420F7
:100C3800FFF756FC0320FFF753FC1220FFF750FC88
:100C48008120FFF74DFCE820FFF73AFC8520FFF7ED
:100C580047FC1020FFF744FC7A20FFF741FCCB202B
:100C6800FFF72EFC3920FFF73BFC2C20FFF738FC60
:100C78000020FFF735FC3420FFF732FC0220FFF795
:100C88002FFCF720FFF71CFC2020FFF729FCEA20A7
:100C9800FFF716FC0020FFF723FC0020FFF720FCDD
:100CA800C020FFF70DFC1B20FFF71AFCC120FFF73F
:100CB80007FC0120FFF714FCC520FFF701FC3020DA
:100CC800FFF70EFC3020FFF70BFCC720FFF7F8FBFF
:100CD800B720FFF705FC3620FFF7F2FB0820FFF7E7
:100CE800FFFB3A20FFF7ECFB5520FFF7F9FBB1209B
:100CF800FFF7E6FB0020FFF7F3FB1A20FFF7F0FBF6
:100D0800B620FFF7DDFB0A20FFF7EAFBA220FFF77A
:100D1800E7FBF220FFF7D4FB0020FFF7E1FB2620DA
:100D2800FFF7CEFB0120FFF7DBFBE020FFF7C8FB56
:100D38000F20FFF7D5FB2A20FFF7D2FB2820FFF76B
:100D4800CFFB0820FFF7CCFB0E20FFF7C9FB0820DC
:100D5800FFF7C6FB5420FFF7C3FBA920FFF7C0FB32
:100D68004320FFF7BDFB0A20FFF7BAFB0F20FFF770
:100D7800B7FB0020FFF7B4FB0020FFF7B1FB002012
:100D8800FFF7AEFB0020FFF7ABFBE120FFF798FB76
:100D98000020FFF7A5FB1520FFF7A2FB1720FFF7A0
:100DA8009FFB0720FFF79CFB1120FFF799FB06200C
:100DB800FFF796FB2B20FFF793FB5620FFF790FBDE
:100DC8003C20FFF78DFB0520FFF78AFB1020FFF77B
:100DD80087FB0F20FFF784FB3F20FFF781FB3F20B5
:100DE800FFF77EFB0F20FFF77BFB2B20FFF768FB4D
:100DF8000020FFF775FB0020FFF772FB0120FFF7CB
:100E08006FFB3F20FFF76CFB2A20FFF759FB002000
:100E1800FFF766FB0020FFF763FB0020FFF760FB8E
:100E2800EF20FFF75DFB1120FFF74AFB782000F069
:100E380053FF2920FFF744FB01224FF48071044837
:100E480001F01CFA00BF80BD000802402800002005
:100E58000000024080B584B000AFF860B9607A60E5
:100E68003B60FB689AB27B689BB2134498B2BB683C
:100E78009AB23B689BB213449BB23A8B1946FFF770
:100E8800D3FBFB689AB27B689BB2D31A98B2BB6853
:100E98009AB23B689BB213449BB23A8B1946FFF750
:100EA800C3FBFB689AB27B689BB2134498B2BB68D9
:100EB8009AB23B689BB2D31A9BB23A8B1946FFF79A
:100EC800B3FBFB689AB27B689BB2D31A98B2BB6833
:100ED8009AB23B689BB2D31A9BB23A8B1946FFF77A
:100EE800A3FBFB689AB23B689BB2134498B2BB68F9
:100EF8009AB27B689BB213449BB23A8B1946FFF7B0
:100F080093FBFB689AB23B689BB2D31A98B2BB6852
:100F18009AB27B689BB213449BB23A8B1946FFF78F
:100F280083FBFB689AB23B689BB2134498B2BB68D8
:100F38009AB27B689BB2D31A9BB23A8B1946FFF7D9
:100F480073FBFB689AB23B689BB2D31A98B2BB6832
:100F58009AB27B689BB2D31A9BB23A8B1946FFF7B9
:100F680063FB00BF1037BD4680BD80B58AB002AFB5
:100F7800F860B9603B601346FB800023FB613B6867
:100F8800BB613B685B00C3F103033B61BB6A002B99
:100F98004FD029E0FB697B610AE0FB8800937B69FD
:100FA800FA69B968F868FFF755FF7B6901337B6117
:100FB8007A69BB699A42F0DD3B69002B06DAFB6966
:100FC8009A003B69134406333B610AE0FA69BB693E
:100FD800D31A9A003B6913440A333B61BB69013B4E
:100FE800BB61FB690133FB61FA69BB699A42D1DDD8
:100FF80023E0FB880093BB69FA69B968F868FFF7D2
:1010080029FF3B69002B06DAFB699A003B69134408
:1010180006333B610AE0FA69BB69D31A9A003B6957
:1010280013440A333B61BB69013BBB61FB69013374
:10103800FB61FA69BB699A42DBDD00BF2037BD4618
:1010480080BD000090B58BB004AFBA601A46034665
:10105800FB810B46BB811346FB80FB89BB820023C7
:10106800FB7548E0FB7D002B45D1FA89264B1B8890
:10107800194697F82C305B08DBB2CB1A9A423FDC52
:10108800BA89214B5B88194697F82C30CB1A9A42BB
:1010980036DCBB681B78802B02D90123FB752AE05C
:1010A800BB681B780D2B0BD197F82C309AB2BB89F3
:1010B8001344BB81BB8AFB81BB680133BB6017E06B
:1010C800BB681A78FC88B989F88997F83030029398
:1010D80097F82C3001933B8D00932346FFF776FB5E
:1010E80097F82C305B08DBB21A46FB891344FB8166
:1010F800BB680133BB60BB681B78002BB2D100E032
:1011080000BF1C37BD4690BD2800002080B58AB0BE
:1011180004AFBA601A460346FB810B46BB811346EF
:10112800FB80B868FFF74CF80346FB820F4B1B881F
:101138001A46FB8ADB00D31ADA0F13445B10BB8212
:10114800FA89BB8A134498B2FA88B98997F8283083
:10115800029397F8243001933B8C00931346BA68A6
:10116800FFF770FF00BF1837BD4680BD280000207C
:1011780080B500AF01220821024801F07FF800BFC6
:1011880080BD00BF000C024080B584B000AF0022D3
:1011980008212F4801F072F8012208212C4801F09B
:1011A8006DF80A2302222B492B4801F048FD002341
:1011B800FB604FF400437B8100237B603FE07B684A
:1011C800002B06DB7B68032B03DC7B680433FB60A6
:1011D80018E07B68032B07DD7B68072B04DC7B6842
:1011E800C3F10703FB600DE07B68072B06DD7B6816
:1011F8000B2B03DC7B680433FB6003E07B68C3F1E3
:101208001703FB60134B1A887B8913409BB2002B92
:1012180005D0124AFB68002122F8131009E00F4A92
:10122800FB6832F81330013399B20C4AFB6822F894
:1012380013107B895B087B817B6801337B607B684B
:101248000F2BBCDD00BF00BF1037BD4680BD00BFFF
:10125800000C024050000020B000002030000020A8
:1012680080B58EB000AF07F11C0300221A605A60E7
:101278009A60DA601A615A619A613B4600221A60E4
:101288005A609A60DA601A615A619A612F4B4FF07E
:1012980020421A602D4B2E4A5A602C4B00229A602D
:1012A8002A4B0022DA60294B00221A61274B1022B0
:1012B8005A61264B00229A61244B0022DA61234BA3
:1012C80000221A62214B00225A62204B4FF48052AE
:1012D8009A621E4B0022DA621C4B4FF480421A635A
:1012E8001A4B00225A63194B00229A63174B0022AB
:1012F8005A640F23FB610F233B623C237B6200236C
:10130800BB621023FB6211233B6300237B6308232A
:101318003B600F237B600923BB600023FB60102325
:101328003B6111237B610023BB613A4607F11C0333
:101338001946064802F08EF80346002B01D000F04B
:1013480075FA00BF3837BD4680BD00BF5400002085
:10135800040100A080B586B000AF3B1D00221A60D2
:101368005A609A60DA601A611C4B1B68002B31D1F5
:101378001A4B01221A6000233B60194B9B6B184AD9
:1013880043F001039363164B9B6B03F001033B602F
:101398003B684FF688737B600223BB600023FB60C9
:1013A80003233B610C237B613B1D19460D4800F06C
:1013B800C9FD4CF2B3737B600223BB600023FB6062
:1013C80003233B610C237B613B1D1946064800F053
:1013D800B9FD00E000BF1837BD4680BDA40000205D
:1013E8000038024000100240000C024080B582B074
:1013F80000AF7860FFF7AEFF00BF0837BD4680BD7D
:1014080080B58CB000AF07F11C0300221A605A6047
:101418009A60DA601A610023BB61634B1B6B624AF6
:1014280043F010031363604B1B6B03F01003BB61A5
:10143800BB6900237B615C4B1B6B5B4A43F0040375
:101448001363594B1B6B03F004037B617B69002317
:101458003B61554B1B6B544A43F080031363524B5B
:101468001B6B03F080033B613B690023FB604E4B21
:101478001B6B4D4A43F0080313634B4B1B6B03F084
:101488000803FB60FB680023BB60474B1B6B464AA5
:1014980043F040031363444B1B6B03F04003BB60F2
:1014A800BB6800237B60404B1B6B3F4A43F0010342
:1014B80013633D4B1B6B03F001037B607B680023C8
:1014C8003B60394B1B6B384A43F002031363364BBE
:1014D8001B6B03F002033B603B680022702133481A
:1014E80000F0CCFE00224FF40051314800F0C6FE57
:1014F800002240212F4800F0C1FE00224FF48071E5
:101508002D4800F0BBFE002208212C4800F0B6FE52
:101518007023FB6101233B6200237B620023BB62D3
:1015280007F11C031946214800F00CFD4FF4005345
:10153800FB6101233B6200237B620023BB6207F14E
:101548001C0319461A4800F0FDFC4023FB610123E7
:101558003B6200237B620023BB6207F11C03194630
:10156800144800F0EFFC4FF48073FB6101233B62E9
:1015780000237B620023BB6207F11C0319460E4857
:1015880000F0E0FC0823FB6101233B6200237B623F
:101598000023BB6207F11C031946084800F0D2FC7F
:1015A80000BF3037BD4680BD003802400010024001
:1015B800000802400018024000000240000C0240EF
:1015C80080B500AF01224021024800F057FE00BF5D
:1015D80080BD00BF0018024080B500AF00F00AFBD4
:1015E80000F02EF8FFF70CFF00F068FAFFF738FE5E
:1015F80000F072F900F098F800F028F90346002B83
:10160800FAD0322000F02EF9FFF7BEFD0A4B1A88F7
:101618000A4BA3FB021359090B469B000B44DB0042
:10162800D31A9BB2012B01D100F074F800F08CF8AA
:1016380000F0B2F8E0E700BF30000020CDCCCCCC01
:1016480080B594B000AF07F120033022002118467E
:1016580002F096FC07F10C0300221A605A609A60A7
:10166800DA601A610023BB60284B1B6C274A43F0E1
:1016780080531364254B1B6C03F08053BB60BB681D
:1016880000237B60224B1B68214A43F4804313608C
:101698001F4B1B6803F480437B607B6802233B621B
:1016A8000123FB6210233B630223BB630023FB631C
:1016B80008233B64A8237B640223BB640423FB64E4
:1016C80007F12003184600F00DFE0346002B01D059
:1016D80000F0ACF80F23FB6002233B6100237B6121
:1016E8004FF4A053BB614FF4A053FB6107F10C0307
:1016F8000521184601F06EF80346002B01D000F0D2
:1017080095F800BF5037BD4680BD00BF0038024085
:101718000070004080B500AF1021024800F0C7FDFE
:1017280000BF80BD0010024080B500AF00F084F813
:101738004FF47A7000F096F8FFF742FFFFF718FDB4
:10174800FFF728FA00BF80BD80B586B004AF00233C
:101758007B6017E00F4A7B6832F81330002B0ED0FD
:101768007B689AB2202302934FF6FF7301934FF6DA
:101778001F030093022369218C20FFF713F97B686C
:1017880001337B607B680F2BE4DD00BF00BF0837A7
:10179800BD4680BD3000002080B584B004AF1F2353
:1017A80000931423F02200210020FEF707FF0123F5
:1017B8000293102301931F2300934FF47843184A90
:1017C80002210020FFF7A2FC0023029318230193B3
:1017D8004FF4784300934FF6FF73124A1E211420EA
:1017E800FFF730FC4FF4FC630093A02364225021E0
:1017F8001420FEF7B4FF0023009328234FF61F029E
:101808007821A020FFF7B1FB074B00935A235A22F7
:10181800C8215020FFF744F900BFBD4680BD00BF76
:10182800F83F000808400008986F000880B400AF2F
:1018380072B600BF00BFFDE780B500AF024801F0F7
:10184800A1FE00BF80BD00BF0801002080B400AF2A
:10185800034B1B781846BD465DF8047B704700BFF4
:10186800AC00002080B483B000AF7860054A7B6884
:101878001360054B00221A7000BF0C37BD465DF897
:10188800047B7047A8000020AC00002080B400AFA3
:101898000A4B1B68002B04D0084B1B68013B074A06
:1018A8001360064B1B68002B02D1054B01221A70EE
:1018B80000BFBD465DF8047B704700BFA80000204C
:1018C800AC00002080B582B000AF7860FFF7DEFF83
:1018D80000BF0837BD4680BD80B500AF174B184A1A
:1018E8001A60164B4FF482725A60144B00229A60A9
:1018F800124B0022DA60114B00221A610F4B0022B2
:101908005A610E4B4FF400729A610C4B0022DA6157
:101918000A4B00221A62094B00225A62074B002226
:101928009A62064B0A22DA62044801F0FFF803467D
:10193800002B01D0FFF77AFF00BF80BDB000002068
:101948000030014080B58AB000AF786007F1140319
:1019580000221A605A609A60DA601A617B681B6814
:10196800194A93422BD100233B61184B5B6C174AF1
:1019780043F480535364154B5B6C03F480533B6111
:101988003B690023FB60114B1B6B104A43F00203B9
:1019980013630E4B1B6B03F00203FB60FB683823D9
:1019A8007B610223BB610023FB6103233B620523A8
:1019B8007B6207F114031946054800F0C3FA00BF1B
:1019C8002837BD4680BD00BF0030014000380240C6
:1019D8000004024080B483B000AF00237B60104B4A
:1019E8005B6C0F4A43F4804353640D4B5B6C03F408
:1019F80080437B607B6800233B60094B1B6C084A73
:101A080043F080531364064B1B6C03F080533B6018
:101A18003B6800BF0C37BD465DF8047B704700BFCC
:101A28000038024080B400AF00BFFDE780B400AFCB
:101A380000BFFDE780B400AF00BFFDE780B400AF92
:101A480000BFFDE780B400AF00BFFDE780B400AF82
:101A580000BFBD465DF8047B704780B400AF00BF8F
:101A6800BD465DF8047B704780B400AF00BFBD463B
:101A78005DF8047B704780B500AF00F00DF900BF3A
:101A880080BD000080B500AF024801F0EBFD00BF4B
:101A980080BD00BF0801002080B400AF064BD3F81A
:101AA8008830054A43F47003C2F8883000BFBD4649
:101AB8005DF8047B704700BF00ED00E080B586B09C
:101AC80000AF07F1080300221A605A609A60DA60D2
:101AD8003B4600221A605A601D4B4FF080421A6044
:101AE8001B4B44F29F125A60194B00229A60184B04
:101AF8000922DA60164B00221A61154B00229A61FE
:101B0800134801F0EFFC0346002B01D0FFF78EFECF
:101B18004FF48053BB6007F1080319460C4801F0E5
:101B280091FE0346002B01D0FFF780FE00233B60A7
:101B380000237B603B461946054802F0B9F8034686
:101B4800002B01D0FFF772FE00BF1837BD4680BDDD
:101B58000801002080B584B000AF78607B681B68FE
:101B6800B3F1804F15D10023FB600C4B1B6C0B4A63
:101B780043F001031364094B1B6C03F00103FB6082
:101B8800FB68002200211C2000F0A5F91C2000F0B1
:101B9800BEF900BF1037BD4680BD00BF0038024007
:101BA800DFF834D0FFF778FF0C480D490D4A0023C1
:101BB80002E0D458C4500433C4188C42F9D30A4AFA
:101BC8000A4C002301E013600432A242FBD302F066
:101BD800DFF9FFF701FD7047000002200000002038
:101BE8000C00002000AF00080C0000205401002069
:101BF800FEE7000080B500AF0E4B1B680D4A43F4AA
:101C0800007313600B4B1B680A4A43F4806313602C
:101C1800084B1B68074A43F480731360032000F0E5
:101C28004FF90F2000F008F8FFF7D4FE00231846FC
:101C380080BD00BF003C024080B582B000AF786034
:101C4800124B1A68124B1B7819464FF47A73B3FB80
:101C5800F1F3B2FBF3F3184600F067F90346002BE3
:101C680001D001230EE07B680F2B0AD80022796887
:101C78004FF0FF3000F02FF9064A7B68136000230D
:101C880000E0012318460837BD4680BD000000204B
:101C9800080000200400002080B400AF064B1B7829
:101CA8001A46064B1B681344044A136000BFBD461E
:101CB8005DF8047B704700BF080000205001002039
:101CC80080B400AF034B1B681846BD465DF8047B23
:101CD800704700BF5001002080B584B000AF786025
:101CE800FFF7EEFFB8607B68FB60FB68B3F1FF3F6E
:101CF80005D00A4B1B781A46FB681344FB6000BFEB
:101D0800FFF7DEFF0246BB68D31AFA689A42F7D893
:101D180000BF00BF1037BD4680BD00BF08000020CF
:101D280080B485B000AF78607B6803F00703FB6080
:101D38000C4BDB68BB60BA684FF6FF031340BB600F
:101D4800FB681A02BB68134343F0BF6343F40033D4
:101D5800BB60044ABB68D36000BF1437BD465DF85A
:101D6800047B704700ED00E080B400AF044BDB68F3
:101D78001B0A03F007031846BD465DF8047B70474D
:101D880000ED00E080B483B000AF0346FB7197F923
:101D98000730002B0BDBFB7903F01F02074997F98B
:101DA80007305B09012000FA02F241F8232000BF46
:101DB8000C37BD465DF8047B704700BF00E100E0CA
:101DC80080B483B000AF03463960FB7197F90730E0
:101DD800002B0ADB3B68DAB20C4997F9073012018D
:101DE800D2B20B4483F800230AE03B68DAB2084910
:101DF800FB7903F00F03043B1201D2B20B441A76AD
:101E080000BF0C37BD465DF8047B704700E100E079
:101E180000ED00E080B489B000AFF860B9607A6086
:101E2800FB6803F00703FB61FB69C3F10703042B9D
:101E380028BF0423BB61FB690433062B02D9FB6965
:101E4800033B00E000237B614FF0FF32BB6902FADD
:101E580003F3DA43BB681A407B699A404FF0FF31BD
:101E68007B6901FA03F3D9437B680B401343184697
:101E78002437BD465DF8047B7047000080B582B00A
:101E880000AF78607B68013BB3F1807F01D3012309
:101E98000FE00A4A7B68013B53600F214FF0FF3087
:101EA800FFF78EFF054B00229A60044B07221A6049
:101EB800002318460837BD4680BD00BF10E000E08B
:101EC80080B582B000AF78607868FFF729FF00BF5F
:101ED8000837BD4680BD80B586B000AF0346B960FF
:101EE8007A60FB7300237B61FFF73EFF78617A68B5
:101EF800B9687869FFF78EFF024697F90F301146E7
:101F08001846FFF75DFF00BF1837BD4680BD80B596
:101F180082B000AF0346FB7197F907301846FFF708
:101F280031FF00BF0837BD4680BD80B582B000AF25
:101F380078607868FFF7A2FF034618460837BD4661
:101F480080BD000080B489B000AF7860396000239C
:101F58007B6100233B610023BB610023FB616BE1D4
:101F68000122FB6902FA03F37B613B681B687A690B
:101F780013403B613A697B699A4240F05A813B6859
:101F88005B6803F00303012B05D03B685B6803F033
:101F98000303022B30D17B689B68BB61FB695B0044
:101FA800032202FA03F3DB43BA691340BB613B68BF
:101FB800DA68FB695B0002FA03F3BA691343BB6191
:101FC8007B68BA699A607B685B68BB610122FB69C0
:101FD80002FA03F3DB43BA691340BB613B685B68F1
:101FE8001B0903F00102FB6902FA03F3BA69134300
:101FF800BB617B68BA695A603B685B6803F003039E
:10200800032B17D07B68DB68BB61FB695B0003228D
:1020180002FA03F3DB43BA691340BB613B689A6871
:10202800FB695B0002FA03F3BA691343BB617B687F
:10203800BA69DA603B685B6803F00303022B23D1BB
:10204800FB69DA087B68083253F82230BB61FB6908
:1020580003F007039B000F2202FA03F3DB43BA697C
:102068001340BB613B681A69FB6903F007039B00D7
:1020780002FA03F3BA691343BB61FB69DA087B68A8
:102088000832B96943F822107B681B68BB61FB6999
:102098005B00032202FA03F3DB43BA691340BB6116
:1020A8003B685B6803F00302FB695B0002FA03F319
:1020B800BA691343BB617B68BA691A603B685B689D
:1020C80003F44033002B00F0B4800023FB60604B26
:1020D8005B6C5F4A43F4804353645D4B5B6C03F471
:1020E8008043FB60FB685B4AFB699B08023352F83C
:1020F8002330BB61FB6903F003039B000F2202FA44
:1021080003F3DB43BA691340BB617B68524A9342CD
:102118002BD07B68514A934225D07B68504A934222
:102128001FD07B684F4A934219D07B684E4A93422E
:1021380013D07B684D4A93420DD07B684C4A93423A
:1021480007D07B684B4A934201D107230EE008234E
:102158000CE006230AE0052308E0042306E0032335
:1021680004E0022302E0012300E00023FA6902F000
:10217800030292009340BA691343BB613549FB6976
:102188009B080233BA6941F823203B4B9B68BB612B
:102198003B69DB43BA691340BB613B685B6803F486
:1021A8008013002B03D0BA693B691343BB61324AE1
:1021B800BB699360304BDB68BB613B69DB43BA6941
:1021C8001340BB613B685B6803F40013002B03D02A
:1021D800BA693B691343BB61274ABB69D360264B85
:1021E8005B68BB613B69DB43BA691340BB613B6811
:1021F8005B6803F40033002B03D0BA693B691343CF
:10220800BB611D4ABB6953601B4B1B68BB613B69C3
:10221800DB43BA691340BB613B685B6803F48033F6
:10222800002B03D0BA693B691343BB61124ABB69EF
:102238001360FB690133FB61FB690F2B7FF690AEDE
:1022480000BF00BF2437BD465DF8047B704700BF60
:1022580000380240003801400000024000040240FB
:1022680000080240000C0240001002400014024026
:1022780000180240001C0240003C014080B483B0BA
:1022880000AF78600B467B8013467B707B78002B11
:1022980003D07A887B689A6103E07B881A047B689C
:1022A8009A6100BF0C37BD465DF8047B704780B467
:1022B80085B000AF78600B467B807B685B69FB600C
:1022C8007A88FB6813401A04FB68D9437B880B4063
:1022D8001A437B689A6100BF1437BD465DF8047BDA
:1022E8007047000080B586B000AF78607B68002B2F
:1022F80001D1012367E27B681B6803F00103002B0F
:1023080075D0884B9B6803F00C03042B0CD0854BCD
:102318009B6803F00C03082B12D1824B5B6803F413
:102328008003B3F5800F0BD17E4B1B6803F4003399
:10233800002B5BD07B685B68002B57D1012342E2FE
:102348007B685B68B3F5803F06D1764B1B68754A9E
:1023580043F4803313601DE07B685B68B3F5A02FFE
:102368000CD1704B1B686F4A43F4802313606D4B8C
:102378001B686C4A43F4803313600BE0694B1B689D
:10238800684A23F480331360664B1B68654A23F45C
:10239800802313607B685B68002B13D0FFF790FCE9
:1023A800386108E0FFF78CFC02463B69D31A642BBE
:1023B80001D9032307E25B4B1B6803F40033002BAE
:1023C800F0D014E0FFF77CFC386108E0FFF778FCF8
:1023D80002463B69D31A642B01D90323F3E1514B1D
:1023E8001B6803F40033002BF0D100E000BF7B68CA
:1023F8001B6803F00203002B63D04A4B9B6803F071
:102408000C03002B0BD0474B9B6803F00C03082BE5
:102418001CD1444B5B6803F48003002B16D1414B5D
:102428001B6803F00203002B05D07B68DB68012BD7
:1024380001D00123C7E13B4B1B6823F0F8027B68FE
:102448001B69DB00374913430B603AE07B68DB68A4
:10245800002B20D0344B01221A60FFF731FC386181
:1024680008E0FFF72DFC02463B69D31A022B01D97D
:102478000323A8E12B4B1B6803F00203002BF0D0C9
:10248800284B1B6823F0F8027B681B69DB00254991
:1024980013430B6015E0244B00221A60FFF710FC71
:1024A800386108E0FFF70CFC02463B69D31A022B9F
:1024B80001D9032387E11B4B1B6803F00203002BA0
:1024C800F0D17B681B6803F00803002B36D07B68CB
:1024D8005B69002B16D0154B01221A60FFF7F0FB41
:1024E800386108E0FFF7ECFB02463B69D31A022B80
:1024F80001D9032367E10B4B5B6F03F00203002B49
:10250800F0D01BE0094B00221A60FFF7D9FB3861B5
:102518000EE0FFF7D5FB02463B69D31A022B07D919
:10252800032350E10038024000004742800E474232
:10253800884B5B6F03F00203002BEAD17B681B68B2
:1025480003F00403002B00F097800023FB75814BF8
:102558001B6C03F08053002B0FD10023BB607D4B15
:102568001B6C7C4A43F0805313647A4B1B6C03F05A
:102578008053BB60BB680123FB75774B1B6803F472
:102588008073002B18D1744B1B68734A43F4807313
:102598001360FFF795FB386108E0FFF791FB0246EF
:1025A8003B69D31A022B01D903230CE16A4B1B6840
:1025B80003F48073002BF0D07B689B68012B06D155
:1025C800644B1B6F634A43F0010313671CE07B688D
:1025D8009B68052B0CD15F4B1B6F5E4A43F00403CD
:1025E80013675C4B1B6F5B4A43F0010313670BE0F7
:1025F800584B1B6F574A23F001031367554B1B6F4A
:10260800544A23F0040313677B689B68002B15D09A
:10261800FFF756FB38610AE0FFF752FB02463B69B9
:10262800D31A41F28832934201D90323CBE0494BB4
:102638001B6F03F00203002BEED014E0FFF740FB02
:1026480038610AE0FFF73CFB02463B69D31A41F2C6
:102658008832934201D90323B5E03E4B1B6F03F048
:102668000203002BEED1FB7D012B05D1394B1B6CEE
:10267800384A23F0805313647B689B69002B00F071
:10268800A180344B9B6803F00C03082B5CD07B685B
:102698009B69022B41D1314B00221A60FFF710FBD6
:1026A800386108E0FFF70CFB02463B69D31A022B9E
:1026B80001D9032387E0274B1B6803F00073002B25
:1026C800F0D17B68DA697B681B6A1A437B685B6AAE
:1026D8009B011A437B689B6A5B08013B1B041A43F6
:1026E8007B68DB6A1B061B4913434B601B4B0122AB
:1026F8001A60FFF7E5FA386108E0FFF7E1FA0246E9
:102708003B69D31A022B01D903235CE0114B1B68E8
:1027180003F00073002BF0D054E0104B00221A6035
:10272800FFF7CEFA386108E0FFF7CAFA02463B69BC
:10273800D31A022B01D9032345E0064B1B6803F08B
:102748000073002BF0D13DE07B689B69012B07D11A
:10275800012338E000380240007000406000474222
:102768001B4B5B68FB607B689B69012B28D0FB686F
:1027780003F480027B68DB699A4221D1FB6803F08D
:102788003F027B681B6A9A421AD1FA6847F6C073FF
:1027980013407A68526A9201934211D1FB6803F49C
:1027A80040327B689B6A5B08013B1B049A4207D155
:1027B800FB6803F070627B68DB6A1B069A4201D0F3
:1027C800012300E0002318461837BD4680BD00BF2E
:1027D8000038024080B584B000AF786039607B680B
:1027E800002B01D10123CCE0684B1B6803F00703E1
:1027F8003A689A420CD9654B3A68D2B21A70634B60
:102808001B6803F007033A689A4201D00123B8E035
:102818007B681B6803F00203002B20D07B681B68D1
:1028280003F00403002B05D0594B9B68584A43F426
:10283800E05393607B681B6803F00803002B05D006
:10284800534B9B68524A43F460439360504B9B68D8
:1028580023F0F0027B689B684D4913438B607B68CB
:102868001B6803F00103002B44D07B685B68012BD5
:1028780007D1474B1B6803F40033002B19D1012300
:102888007FE07B685B68022B03D07B685B68032B67
:1028980007D13F4B1B6803F00073002B09D10123BC
:1028A8006FE03B4B1B6803F00203002B01D10123AF
:1028B80067E0374B9B6823F003027B685B68344909
:1028C80013438B60FFF7FCF9F8600AE0FFF7F8F9AB
:1028D8000246FB68D31A41F28832934201D9032396
:1028E8004FE02B4B9B6803F00C027B685B689B00F6
:1028F8009A42EBD1254B1B6803F007033A689A42CA
:102908000CD2224B3A68D2B21A70204B1B6803F0E3
:1029180007033A689A4201D0012332E07B681B68BA
:1029280003F00403002B08D0194B9B6823F4E052F2
:102938007B68DB68164913438B607B681B6803F070
:102948000803002B09D0124B9B6823F460427B6874
:102958001B69DB000E4913438B6000F021F8024627
:102968000B4B9B681B0903F00F030A49CB5C22FA47
:1029780003F3094A1360094B1B681846FFF75CF913
:10298800002318461037BD4680BD00BF003C0240FA
:1029980000380240E0AE00080000002004000020DB
:1029A8002DE9B04F90B000AF00237B630023FB6399
:1029B80000233B630023BB63594B9B6803F00C0364
:1029C800082B0DD0082B00F2A180002B02D0042B7D
:1029D80003D09BE0534BBB639BE0534BBB6398E036
:1029E8004F4B5B6803F03F037B634D4B5B6803F41D
:1029F8008003002B28D04A4B5B689B0900223B626E
:102A08007A623B6AC3F308000021474B03FB01F2DB
:102A1800002300FB03F31344434AA0FB0212FA62AB
:102A28000A46BA62FA6A1344FB627B6B0022BB61F6
:102A3800FA61D7E90623D7E90A01FDF7C9FB02467F
:102A48000B461346FB6353E0354B5B689B0900223A
:102A58003B617A613B69C3F3080A4FF0000B5246A9
:102A68005B464FF000004FF00001590141EAD26186
:102A7800500102460B46B2EB0A0863EB0B094FF014
:102A880000024FF000034FEA891343EA98634FEAC4
:102A98008812B2EB080463EB09054FF000024FF00F
:102AA8000003EB0043EA5473E20014461D4614EB9E
:102AB8000A033B6045EB0B037B604FF000024FF0CD
:102AC8000003D7E9004529468B02214643EA915382
:102AD80021468A02104619467B6B0022BB60FA60C9
:102AE800D7E90223FDF774FB02460B461346FB6346
:102AF8000B4B5B681B0C03F0030301335B003B6368
:102B0800FA6B3B6BB2FBF3F3BB6302E0054BBB63B1
:102B180000BFBB6B18464037BD46BDE8B08F00BF4D
:102B2800003802400024F40040787D0180B582B06E
:102B380000AF78607B68002B01D101237BE07B68C4
:102B48005B6A002B08D17B685B68B3F5827F09D08C
:102B58007B680022DA6105E07B6800221A617B68E5
:102B680000225A617B6800229A627B6893F8513090
:102B7800DBB2002B06D17B68002283F850207868EE
:102B8800FEF7E0FE7B68022283F851207B681B6811
:102B98001A687B681B6822F040021A607B685B68D1
:102BA80003F482727B689B6803F404431A437B68CE
:102BB800DB6803F400631A437B681B6903F00203B4
:102BC8001A437B685B6903F001031A437B689B69BE
:102BD80003F400731A437B68DB6903F038031A4374
:102BE8007B681B6A03F0800342EA03017B689B6AE7
:102BF80003F400527B681B680A431A607B689B6970
:102C08001B0C03F004017B685B6A03F010027B680D
:102C18001B680A435A607B681B68DA697B681B6813
:102C280022F40062DA617B6800225A657B6801221F
:102C380083F85120002318460837BD4680BD80B56B
:102C480088B002AFF860B9603B601346FB80002390
:102C5800FB75FB6893F85130DBB2012B02D00223DD
:102C6800FB75FBE0FB685B68B3F5827F12D1FB68FC
:102C78009B68002B0ED1FB68042283F85120FA8848
:102C88003B6800931346BA68B968F86800F0EFF833
:102C98000346E8E0FB6893F85030012B01D102238A
:102CA800E1E0FB68012283F85020FFF709F838615A
:102CB800BB68002B02D0FB88002B02D10123FB75D7
:102CC800CCE0FB68042283F85120FB6800225A6597
:102CD800FB68BA689A63FB68FA889A87FB68FA887F
:102CE800DA87FB6800221A63FB6800229A86FB6871
:102CF8000022DA86FB6800221A64FB6800225A6404
:102D0800FB689B68B3F5004F0FD1FB681B681A6816
:102D1800FB681B6822F040021A60FB681B681A688F
:102D2800FB681B6822F480421A60FB681B681B68FA
:102D380003F04003402B07D0FB681B681A68FB6848
:102D48001B6842F040021A60FB68DB68002B6AD1FE
:102D580032E0FB681B689B6803F00103012B15D167
:102D6800FB681B6803F10C02FB689B6B1278D2B2FC
:102D78001A70FB689B6B5A1CFB689A63FB68DB8FB5
:102D88009BB2013B9AB2FB68DA8715E0FEF798FF21
:102D980002463B69D31A3A689A4203D83B68B3F1B2
:102DA800FF3F02D13B68002B06D10323FB75FB686C
:102DB800012283F8512051E0FB68DB8F9BB2002B86
:102DC800C7D135E0FB681B689B6803F00103012B42
:102DD80013D1FB681B68DA68FB689B6B92B21A8098
:102DE800FB689B6B9A1CFB689A63FB68DB8F9BB242
:102DF800013B9AB2FB68DA8715E0FEF761FF0246ED
:102E08003B69D31A3A689A4203D83B68B3F1FF3F4B
:102E180002D13B68002B06D10323FB75FB68012216
:102E280083F851201AE0FB68DB8F9BB2002BC9D1D5
:102E38003A693968F86800F053FA0346002B02D063
:102E4800FB6820225A65FB685B6D002B02D00123CA
:102E5800FB7503E0FB68012283F85120FB68002220
:102E680083F85020FB7D18461837BD4680BD80B5D5
:102E78008CB000AFF860B9607A607B800123FB6298
:102E8800002387F82B30FB6893F85030012B01D1D1
:102E9800022398E1FB68012283F85020FEF710FF17
:102EA8007862FB6893F8513087F82330FB685B68D9
:102EB800FB617B887B8397F82330012B0FD0FB695C
:102EC800B3F5827F07D1FB689B68002B03D197F885
:102ED8002330042B03D0022387F82B306DE1BB6825
:102EE800002B05D07B68002B02D07B88002B03D1F8
:102EF800012387F82B3060E1FB6893F85130DBB28F
:102F0800042B03D0FB68052283F85120FB680022BC
:102F18005A65FB687A689A63FB687A88DA87FB687F
:102F28007A889A87FB68BA681A63FB687A88DA86AF
:102F3800FB687A889A86FB6800221A64FB6800227C
:102F48005A64FB681B681B6803F04003402B07D0DA
:102F5800FB681B681A68FB681B6842F040021A602D
:102F6800FB68DB68B3F5006F7CD1FB685B68002BFE
:102F780002D07B8B012B6AD1FB681B6B1A88FB681C
:102F88001B68DA60FB681B6B9A1CFB681A63FB689A
:102F9800DB8E9BB2013B9AB2FB68DA8657E0FB688E
:102FA8001B689B6803F00203022B1BD1FB68DB8EB6
:102FB8009BB2002B16D0FB6A012B13D1FB681B6B4D
:102FC8001A88FB681B68DA60FB681B6B9A1CFB6835
:102FD8001A63FB68DB8E9BB2013B9AB2FB68DA8608
:102FE8000023FB62FB681B689B6803F00103012B4D
:102FF80019D1FB68DB8F9BB2002B14D0FB681B68D0
:10300800DA68FB689B6B92B21A80FB689B6B9A1C10
:10301800FB689A63FB68DB8F9BB2013B9AB2FB6843
:10302800DA870123FB62FEF74BFE02467B6AD31A5E
:10303800BA6B9A420BD8BB6BB3F1FF3F07D003239F
:1030480087F82B30FB68012283F85120B5E0FB6834
:10305800DB8E9BB2002BA2D1FB68DB8F9BB2002BCF
:103068009DD180E0FB685B68002B02D07B8B012B35
:103078006FD1FB681A6BFB681B680C3312781A70E7
:10308800FB681B6B5A1CFB681A63FB68DB8E9BB2E0
:10309800013B9AB2FB68DA865BE0FB681B689B68B9
:1030A80003F00203022B1CD1FB68DB8E9BB2002BC2
:1030B80017D0FB6A012B14D1FB681A6BFB681B68DD
:1030C8000C3312781A70FB681B6B5A1CFB681A6366
:1030D800FB68DB8E9BB2013B9AB2FB68DA86002361
:1030E800FB62FB681B689B6803F00103012B19D185
:1030F800FB68DB8F9BB2002B14D0FB681B68DA6877
:10310800FB689B6BD2B21A70FB689B6B5A1CFB68FE
:103118009A63FB68DB8F9BB2013B9AB2FB68DA8744
:103128000123FB62FEF7CCFD02467B6AD31ABA6B19
:103138009A4203D8BB6BB3F1FF3F02D1BB6B002BA4
:1031480007D1032387F82B30FB68012283F851202D
:1031580033E0FB68DB8E9BB2002B9ED1FB68DB8FD4
:103168009BB2002B99D17A6AB96BF86800F01EF906
:103178000346002B06D0012387F82B30FB6820225A
:103188005A651AE0FB689B68002B0AD100237B6113
:10319800FB681B68DB687B61FB681B689B687B615D
:1031A8007B69FB685B6D002B03D0012387F82B300C
:1031B80003E0FB68012283F85120FB68002283F8B2
:1031C800502097F82B3018463037BD4680BD000098
:1031D80080B588B000AFF860B9603B601346FB71FA
:1031E800FEF76EFD0246BB6A9B1A3A681344FB6100
:1031F800FEF766FDB861394B1B685B011B0DFA6968
:1032080002FB03F37B6154E03B68B3F1FF3F50D00E
:10321800FEF756FD0246BB69D31AFA699A4202D9EB
:10322800FB69002B3DD1FB681B685A68FB681B686B
:1032380022F0E0025A60FB685B68B3F5827F11D127
:10324800FB689B68B3F5004F04D0FB689B68B3F537
:10325800806F07D1FB681B681A68FB681B6822F03F
:1032680040021A60FB689B6AB3F5005F0FD1FB68E8
:103278001B681A68FB681B6822F400521A60FB6816
:103288001B681A68FB681B6842F400521A60FB68E6
:10329800012283F85120FB68002283F85020032381
:1032A80017E07B69002B01D10023FB617B69013B9F
:1032B8007B61FB681B689A68BB681340BA689A42CE
:1032C8000CBF01230023DBB21A46FB799A429BD13B
:1032D800002318462037BD4680BD00BF00000020EF
:1032E80080B586B002AFF860B9607A60FB685B6849
:1032F800B3F5827F11D1FB689B68B3F5004F04D00A
:10330800FB689B68B3F5806F07D1FB681B681A6878
:10331800FB681B6822F040021A60FB685B68B3F523
:10332800827F2AD1FB689B68B3F5806F12D07B68D7
:103338000093BB6800228021F868FFF749FF034625
:10334800002B2DD0FB685B6D43F02002FB685A65AB
:10335800032326E07B680093BB6800220121F868FC
:10336800FFF736FF0346002B1AD0FB685B6D43F06E
:103378002002FB685A65032313E07B680093BB684F
:1033880000220121F868FFF723FF0346002B07D02E
:10339800FB685B6D43F02002FB685A65032300E07D
:1033A800002318461037BD4680BD000080B588B0A0
:1033B80002AFF860B9607A607B680093BB6801224D
:1033C8000221F868FFF704FF0346002B07D0FB68CB
:1033D8005B6D43F02002FB685A65032332E01B4B08
:1033E8001B681B4AA2FB03235B0D4FF47A7202FB96
:1033F80003F37B61FB685B68B3F5827F12D17B685E
:103408000093BB6800228021F868FFF7E1FE0346BD
:10341800002B16D0FB685B6D43F02002FB685A65F1
:1034280003230FE07B69002B0AD07B69013B7B619A
:10343800FB681B689B6803F08003802BF2D000E0D8
:1034480000BF002318461837BD4680BD0000002085
:10345800819F5E1680B584B000AFF860B9607A606D
:10346800FB68002B01D1012338E0FB6893F8493051
:10347800DBB2002B06D1FB68002283F84820F868ED
:10348800FDF7B4FFFB681A68FB6808331946104655
:1034980000F09EFCFB681868FB689B681A46B968D0
:1034A80000F000FDFB685868FB689A68FB681B6BB6
:1034B800796800F02DFDFB681B68FA68926853F87C
:1034C8002210FB681B68FA68926841F0010143F812
:1034D8002210FB68012283F8492000231846103780
:1034E800BD4680BD80B582B000AF78607B68002B98
:1034F80001D1012341E07B6893F83D30DBB2002B1A
:1035080006D17B68002283F83C207868FEF722FB0E
:103518007B68022283F83D207B681A687B68043345
:103528001946104600F07EFA7B68012283F846208F
:103538007B68012283F83E207B68012283F83F20C4
:103548007B68012283F840207B68012283F84120B0
:103558007B68012283F842207B68012283F843209C
:103568007B68012283F844207B68012283F8452088
:103578007B68012283F83D20002318460837BD46A2
:1035880080BD000080B485B000AF78607B6893F898
:103598003D30DBB2012B01D001234EE07B680222D3
:1035A80083F83D207B681B68DA687B681B6842F0FB
:1035B8000102DA607B681B68234A934222D07B6849
:1035C8001B68B3F1804F1DD07B681B681F4A93426C
:1035D80018D07B681B681E4A934213D07B681B680F
:1035E8001C4A93420ED07B681B681B4A934209D041
:1035F8007B681B68194A934204D07B681B68184A89
:10360800934211D17B681B689B6803F00703FB603A
:10361800FB68062B10D07B681B681A687B681B68E0
:1036280042F001021A6007E07B681B681A687B6831
:103638001B6842F001021A60002318461437BD4681
:103648005DF8047B704700BF0000014000040040A3
:1036580000080040000C0040000401400040014008
:103668000018004080B584B000AF78607B681B68A4
:10367800DB68FB607B681B681B69BB60BB6803F089
:103688000203002B20D0FB6803F00203002B1BD0A1
:103698007B681B686FF002021A617B6801221A7747
:1036A8007B681B689B6903F00303002B03D07868D1
:1036B80000F099F905E0786800F08BF9786800F077
:1036C8009CF97B6800221A77BB6803F00403002B7F
:1036D80020D0FB6803F00403002B1BD07B681B6819
:1036E8006FF004021A617B6802221A777B681B68F4
:1036F8009B6903F44073002B03D0786800F073F9DA
:1037080005E0786800F065F9786800F076F97B687C
:1037180000221A77BB6803F00803002B20D0FB684F
:1037280003F00803002B1BD07B681B686FF00802AE
:103738001A617B6804221A777B681B68DB6903F0CF
:103748000303002B03D0786800F04DF905E0786892
:1037580000F03FF9786800F050F97B6800221A778A
:10376800BB6803F01003002B20D0FB6803F01003A4
:10377800002B1BD07B681B686FF010021A617B68F6
:1037880008221A777B681B68DB6903F44073002BF7
:1037980003D0786800F027F905E0786800F019F997
:1037A800786800F02AF97B6800221A77BB6803F072
:1037B8000103002B0CD0FB6803F00103002B07D09A
:1037C8007B681B686FF001021A617868FEF77AF867
:1037D800BB6803F08003002B0CD0FB6803F0800368
:1037E800002B07D07B681B686FF080021A6178682D
:1037F80000F0E4FABB6803F04003002B0CD0FB6830
:1038080003F04003002B07D07B681B686FF0400271
:103818001A61786800F0FBF8BB6803F02003002BFE
:103828000CD0FB6803F02003002B07D07B681B68D3
:103838006FF020021A61786800F0B6FA00BF1037FE
:10384800BD4680BD80B584B000AF78603960002384
:10385800FB737B6893F83C30012B01D10223B4E061
:103868007B68012283F83C207B68022283F83D2094
:103878007B681B689B68BB60BB6823F07703BB60F1
:10388800BB6823F47F43BB607B681B68BA689A6097
:103898003B681B68B3F5005F3ED0B3F5005F00F2EC
:1038A8008780B3F5805F00F08680B3F5805F7FD8AE
:1038B800702B1AD0702B7BD8602B50D0602B77D808
:1038C800502B3CD0502B73D8402B58D0402B6FD85E
:1038D800302B64D0302B6BD8202B60D0202B67D8AE
:1038E800002B5CD0102B5AD062E07B6818683B68CC
:1038F80099683B685A683B68DB6800F0B9F97B68EF
:103908001B689B68BB60BB6843F07703BB607B6840
:103918001B68BA689A604FE07B6818683B689968CA
:103928003B685A683B68DB6800F0A2F97B681B6853
:103938009A687B681B6842F480429A603CE07B6826
:1039480018683B6859683B68DB681A4600F016F946
:103958007B681B685021184600F06FF92CE07B68E3
:1039680018683B6859683B68DB681A4600F035F907
:103978007B681B686021184600F05FF91CE07B68D3
:1039880018683B6859683B68DB681A4600F0F6F827
:103998007B681B684021184600F04FF90CE07B68F3
:1039A8001A683B681B681946104600F046F903E0A0
:1039B8000123FB7300E000BF7B68012283F83D20F0
:1039C8007B68002283F83C20FB7B18461037BD46F5
:1039D80080BD80B483B000AF786000BF0C37BD46AF
:1039E8005DF8047B704780B483B000AF786000BF97
:1039F8000C37BD465DF8047B704780B483B000AFD8
:103A0800786000BF0C37BD465DF8047B704780B412
:103A180083B000AF786000BF0C37BD465DF8047B0B
:103A28007047000080B485B000AF786039607B686B
:103A38001B68FB607B68464A934213D07B68B3F1EE
:103A4800804F0FD07B68434A93420BD07B68424A31
:103A5800934207D07B68414A934203D07B68404A2F
:103A6800934208D1FB6823F07003FB603B685B68F6
:103A7800FA681343FB607B68354A93422BD07B6816
:103A8800B3F1804F27D07B68324A934223D07B68BA
:103A9800314A93421FD07B68304A93421BD07B68DF
:103AA8002F4A934217D07B682E4A934213D07B68E3
:103AB8002D4A93420FD07B682C4A93420BD07B68E7
:103AC8002B4A934207D07B682A4A934203D07B68EB
:103AD800294A934208D1FB6823F44073FB603B6892
:103AE800DB68FA681343FB60FB6823F080023B68DD
:103AF8005B691343FB607B68FA681A603B689A68E5
:103B08007B68DA623B681A687B689A627B68104A4D
:103B1800934203D07B68124A934203D13B681A69E7
:103B28007B681A637B6801225A617B681B6903F012
:103B38000103012B05D17B681B6923F001027B6817
:103B48001A6100BF1437BD465DF8047B704700BF9B
:103B5800000001400004004000080040000C004044
:103B68000004014000400140004401400048014079
:103B780000180040001C00400020004080B487B0BE
:103B880000AFF860B9607A60FB681B6A7B61FB680C
:103B98001B6A23F00102FB681A62FB689B693B61A0
:103BA8003B6923F0F0033B617B681B013A691343CF
:103BB8003B617B6923F00A037B617A69BB68134325
:103BC8007B61FB683A699A61FB687A691A6200BF8F
:103BD8001C37BD465DF8047B704780B487B000AFE2
:103BE800F860B9607A60FB681B6A7B61FB681B6AD6
:103BF80023F01002FB681A62FB689B693B613B6912
:103C080023F470433B617B681B033A6913433B61B0
:103C18007B6923F0A0037B61BB681B017A691343AE
:103C28007B61FB683A699A61FB687A691A6200BF2E
:103C38001C37BD465DF8047B704780B485B000AF83
:103C4800786039607B689B68FB60FB6823F07003D1
:103C5800FB603A68FB68134343F00703FB607B682B
:103C6800FA689A6000BF1437BD465DF8047B704758
:103C780080B487B000AFF860B9607A603B60FB68D9
:103C88009B687B617B6923F47F437B613B681A02F5
:103C98007B681A43BB6813437A6913437B61FB68EB
:103CA8007A699A6000BF1C37BD465DF8047B70478F
:103CB80080B485B000AF786039607B6893F83C3099
:103CC800012B01D102235AE07B68012283F83C20B2
:103CD8007B68022283F83D207B681B685B68FB6079
:103CE8007B681B689B68BB60FB6823F07003FB6004
:103CF8003B681B68FA681343FB607B681B68FA68BB
:103D08005A607B681B68214A934222D07B681B68F3
:103D1800B3F1804F1DD07B681B681D4A934218D0B1
:103D28007B681B681B4A934213D07B681B681A4A3E
:103D380093420ED07B681B68184A934209D07B686F
:103D48001B68174A934204D07B681B68154A934244
:103D58000CD1BB6823F08003BB603B685B68BA6822
:103D68001343BB607B681B68BA689A607B68012252
:103D780083F83D207B68002283F83C200023184606
:103D88001437BD465DF8047B704700BF0000014052
:103D98000004004000080040000C004000040140FE
:103DA800004001400018004080B483B000AF786044
:103DB80000BF0C37BD465DF8047B704780B483B004
:103DC80000AF786000BF0C37BD465DF8047B7047D4
:103DD80080B487B000AF786039603B681A687B6848
:103DE80053F822303A68126823F001017B6843F8DF
:103DF80022103B689B68082B02D140237B6101E0BD
:103E080000237B613B685A687B691A433B689B685F
:103E18001A433B68DB681A433B681B691A433B68D3
:103E28005B691A433B68DB691A433B681B6A1A43A0
:103E38003B685B6A1A433B689B6A1A433B68DB6AC8
:103E48001A433B681B6B13433B613B689B693A69A8
:103E580013433B613B68DB6B3A6913433B61104B8F
:103E6800FB60FB6843F48063FB60FB6843F4E0237A
:103E7800FB603B681A687B6853F82220FB68DB43C9
:103E880002EA03013B681A683B6919437B6843F8F7
:103E98002210002318461C37BD465DF8047B704786
:103EA8007FFB080080B485B000AFF860B9607A6025
:103EB8007B685A1CFB6853F8223003F04041BB680A
:103EC8001A68BB685B681B011A43BB689B681B02C6
:103ED8001A43BB68DB681B041A43BB681B69013BB8
:103EE8001B051A43BB685B69023B1B061A43BB6888
:103EF8009B6913437A6801321943FB6843F822101F
:103F0800002318461437BD465DF8047B704700004F
:103F180080B485B000AFF860B9607A603B603B68F8
:103F2800B3F5804F1DD1FB687A6853F82220134BF4
:103F38001340BA681168BA68526812011143BA6826
:103F4800926812021143BA6892691143BA68D2683A
:103F580012040A4343EA0201FB687A6843F8221014
:103F680005E0FB687A686FF0704143F8221000237F
:103F780018461437BD465DF8047B70470000F0CF43
:103F880002440346934200D1704703F8011BF9E746
:103F980070B50D4D0D4C641BA4100026A64209D126
:103FA8000B4D0C4C00F018F8641BA4100026A64218
:103FB80005D170BD55F8043B98470136EEE755F832
:103FC800043B98470136F2E7F8AE0008F8AE00085F
:103FD800F8AE0008FCAE0008F8B500BFF8BC08BC95
:103FE8009E467047F8B500BFF8BC08BC9E467047AF
:103FF80048656C6C6F20576F726C6420212121001A
:1040080054657374204C43442053637265656E0095
:104018000000000000000000000000000000000098
:104028000000000808080808080800001818000020
:1040380000486C241200000000000000000000008E
:104048000000002424247F1212127F121212000092
:104058000000081C2A2A0A0C1828282A2A1C0808E2
:1040680000000022251515152A5854545422000022
:104078000000000C1212120A76252911916E000018
:104088000006060403000000000000000000000015
:1040980000402010100808080808081010204000E8
:1040A800000204080810101010101008080402007C
:1040B8000000000008086B1C1C6B080800000000CA
:1040C80000000000080808087F0808080800000029
:1040D80000000000000000000000000006060403C5
:1040E8000000000000000000FE00000000000000CA
:1040F80000000000000000000000000006060000AC
:10410800000080404020201010080804040202002B
:104118000000001824424242424242422418000051
:10412800000000080E08080808080808083E0000F3
:104138000000003C4242422020100804427E000059
:104148000000003C4242201820404042221C00004F
:10415800000000203028242422227E20207800001D
:104168000000007E0202021A26404042221C000083
:10417800000000382402021A264242422418000095
:104188000000007E22221010080808080808000015
:104198000000003C4242422418244242423C0000B3
:1041A800000000182442424264584040241C000089
:1041B8000000000000001818000000001818000097
:1041C80000000000000000080000000000080804CB
:1041D80000000040201008040204081020400000DD
:1041E8000000000000007F0000007F0000000000C9
:1041F80000000002040810204020100804020000FB
:104208000000003C424246402010100018180000F0
:104218000000001C225A555555552D42221C0000FD
:104228000000000808181414243C224242E7000049
:104238000000001F2222221E22424242221F0000AA
:104248000000007C4242010101010142221C0000E1
:104258000000001F2242424242424242221F000006
:104268000000003F4212121E12120242423F00009A
:104278000000003F4212121E121202020207000042
:104288000000003C2222010101712122221C0000B1
:10429800000000E7424242427E42424242E70000BA
:1042A8000000003E0808080808080808083E000042
:1042B8000000007C10101010101010101010110FBA
:1042C8000000007722120A0E0A121222227700003A
:1042D800000000070202020202020202427F0000FE
:1042E80000000077363636362A2A2A2A2A6B00003A
:1042F800000000E346464A4A5252526262470000B2
:104308000000001C2241414141414141221C000062
:104318000000003F424242423E0202020207000001
:104328000000001C2241414141414D53321C6000B4
:104338000000003F4242423E1212222242C70000C1
:104348000000007C4242020418204042423E000025
:104358000000007F4908080808080808081C000031
:10436800000000E74242424242424242423C0000D0
:10437800000000E742422224241414180808000010
:104388000000006B49494949555536222222000050
:10439800000000E7422424181818242442E70000EB
:1043A800000000772222141408080808081C0000DE
:1043B8000000007E2120101008040442423F000043
:1043C8000078080808080808080808080808780095
:1043D80000000202040408080810102020204040B1
:1043E800001E1010101010101010101010101E00C9
:1043F8000038440000000000000000000000000039
:10440800000000000000000000000000000000FFA5
:104418000006080000000000000000000000000086
:10442800000000000000003C4278444242FC0000CA
:10443800000000030202021A26424242261A000025
:104448000000000000000038440202024438000066
:1044580000000060404040784442424264D8000076
:10446800000000000000003C427E0202423C0000C6
:10447800000000F08808087E08080808083E0000C8
:10448800000000000000007C22221C023C42423C4A
:10449800000000030202023A4642424242E700009C
:1044A8000000000C0C00000E08080808083E000078
:1044B8000000003030000038202020202020221E5C
:1044C8000000000302020272120A1612227700008C
:1044D8000000000E0808080808080808083E000040
:1044E800000000000000007F9292929292B70000B4
:1044F800000000000000003B4642424242E7000044
:10450800000000000000003C42424242423C0000E1
:10451800000000000000001B26424242221E020743
:10452800000000000000007844424242447840E025
:1045380000000000000000774C040404041F000081
:10454800000000000000007C42023C40423E0000A7
:10455800000000000008083E0808080808300000AD
:1045680000000000000000634242424262DC00009A
:1045780000000000000000E742242414080800009E
:1045880000000000000000EB4949555522220000B8
:10459800000000000000007624181818246E00009F
:1045A80000000000000000E742242414180808074F
:1045B800000000000000007E22100808447E000071
:1045C80000C0202020202010202020202020C000F3
:1045D80010101010101010101010101010101010D3
:1045E800000608080808081008080808080806004F
:1045F8000C32C200000000000000000000000000B3
:1046080000000000000000000000000000000000A2
:104618000000000000000000000000000000000092
:104628000000000000000000000000000000000082
:104638000000000000000000E000E000E000E000F2
:10464800E000400040004000400040004000000002
:1046580000000000E000E000E000000000000000B2
:1046680000000000600660063003980188004400DE
:104678000000000000000000000000000000000032
:104688000000000000000000000000000000000022
:1046980000000000000000000000080208020802F4
:1046A8000802FE07FE070802080204010401FE07CB
:1046B800FE070401040104010401000000000000D9
:1046C80000000000000040004000F00158034C03C7
:1046D8004C034C0058007000E000C001C0014003CA
:1046E8004C034C034C034801F0004000400000001C
:1046F800000000000000000000000E030A01110184
:1047080091009100D1005100FA03AE0260045004F8
:104718005004580448048802840300000000000084
:104728000000000000000000000038006400640081
:1047380064006400A4031C010C011A019200B30078
:10474800E3006300C300A6041C030000000000008F
:10475800000000000C001C001000100008000600FB
:104768000000000000000000000000000000000041
:104778000000000000000000000000000000000031
:104788000000000000040002000180018000C00059
:10479800C0006000600060006000600060006000B1
:1047A800C000C00080008001000100020004000079
:1047B800000000000200040008001800100030008B
:1047C8003000600060006000600060006000600011
:1047D800300030001000180008000400020000003B
:1047E8000000000000000000000000004000400041
:1047F80040004E0E5C07F001F0015C074E0E4000D1
:104808004000400000000000000000000000000020
:104818000000000000000000000000000000400050
:104828004000400040004000FE0F400040004000B3
:1048380040004000000000000000000000000000F0
:104848000000000000000000000000000000000060
:104858000000000000000000000000000000000050
:10486800000000000C001C001000100008000600EA
:104878000000000000000000000000000000000030
:104888000000000000000000FE070000000000001B
:104898000000000000000000000000000000000010
:1048A8000000000000000000000000000000000000
:1048B80000000000000000000000000000000000F0
:1048C800000000001C001C001C000000000000008C
:1048D80000000000000400060002000300010001BF
:1048E8008000800040004000600020002000100090
:1048F8001000080008000C00040006000200000078
:1049080000000000000000000000F00098010C0307
:104918000C0306060606060606060606060606062C
:1049280006060C030C039801F000000000000000CC
:1049380000000000000000000000400060007C0053
:10494800600060006000600060006000600060005F
:104958006000600060006000FC03000000000000D0
:1049680000000000000000000000F80084010203BD
:1049780006030603000380018001C0002000100028
:10498800080204020202FE03FE0300000000000009
:10499800000000000000000000007800C40086014C
:1049A800860186018001C0007000800100010003BB
:1049B8000603060306038401F80000000000000057
:1049C800000000000000000000018001C001C001DB
:1049D800A001900190018801840184018201FE07F1
:1049E8008001800180018001E007000000000000D4
:1049F80000000000000000000000FC03FC030400AD
:104A0800040004000400F4008C0104030003000304
:104A18000603060382018401F8000000000000007C
:104A280000000000000000000000E00118030C0373
:104A38000C0004000600E60116030E06060606062C
:104A4800060604060C021803F0000000000000002F
:104A580000000000000000000000F807FC070C023E
:104A68000401040100018000800040004000400073
:104A7800600060006000600060000000000000004E
:104A880000000000000000000000F8010C0306060A
:104A9800060606060E023C03F000CC0104030606D7
:104AA8000606060606060C03F001000000000000DA
:104AB80000000000000000000000F0000C010C03E2
:104AC800060206060606060606078C06780600068F
:104AD800000300030C018C017800000000000000B6
:104AE80000000000000000000000000000000000BE
:104AF8000000E000E000E00000000000000000000E
:104B080000000000E000E000E000000000000000FD
:104B1800000000000000000000000000000000008D
:104B280000000000600060000000000000000000BD
:104B3800000000000000600060004000200000004D
:104B480000000000000000000004000200018000D6
:104B58004000200010000800040008001000200099
:104B68004000800000010002000400000000000076
:104B7800000000000000000000000000000000002D
:104B880000000000FE070000000000000000FE0713
:104B9800000000000000000000000000000000000D
:104BA80000000000000000000400080010002000C1
:104BB80040008000000100020004000200018000A3
:104BC8004000200010000800040000000000000061
:104BD8000000000000000000F0010C0302060206BD
:104BE8000606060600038001600020002000200061
:104BF800000000007000700070000000000000005D
:104C080000000000000000000000E0013806080471
:104C1800CC0A640B26092609160916099609960571
:104C280066030C080C041802E001000000000000F4
:104C3800000000000000000000006000600070003C
:104C4800D000D000C800880188018801F801040359
:104C580004030403040606060F0F0000000000000A
:104C680000000000000000000000FF0086010603AD
:104C78000603060306038601FE000603060206066F
:104C88000606060606060603FF01000000000000EF
:104C980000000000000000000000E00718060C04F7
:104CA8000C040400060006000600060006000600C4
:104CB80006040C040C021801F000000000000000BB
:104CC800000000000000000000007F0086010603CD
:104CD800060306060606060606060606060606066F
:104CE800060606030603C6017F0000000000000058
:104CF80000000000000000000000FF030602060498
:104D08000600060086008600FE0086008600060073
:104D18000600060406040602FF0300000000000067
:104D280000000000000000000000FF030603060466
:104D38000604060086008600FE008600860006003F
:104D480006000600060006000F0000000000000034
:104D580000000000000000000000F00218030C0230
:104D68000C0204000600060006000600C60F060333
:104D780006030C030C031803F000000000000000F9
:104D8800000000000000000000000F0F06060606E5
:104D98000606060606060606FE07060606060606B2
:104DA80006060606060606060F0F000000000000AD
:104DB80000000000000000000000FC03600060002C
:104DC80060006000600060006000600060006000DB
:104DD8006000600060006000FC030000000000004C
:104DE80000000000000000000000F00F80018001BA
:104DF80080018001800180018001800180018001A3
:104E0800800180018001800180018601C6007C004C
:104E180000000000000000000000CF070601860027
:104E280046004600260036003E006E00E600C6003A
:104E3800C6018601060306078F0F00000000000068
:104E4800000000000000000000000F00060006003F
:104E5800060006000600060006000600060006001A
:104E68000600060406040602FF0300000000000016
:104E7800000000000000000000000F0F0E070E07E2
:104E88000E079A069A069A069A065A067206720635
:104E98007206720622062206270F00000000000094
:104EA80000000000000000000000070E0E040E04C1
:104EB8001A041A04320462046204C204C204820599
:104EC80002070207020602060704000000000000AD
:104ED80000000000000000000000F00098010C0332
:104EE8000C02060606060606060606060606060658
:104EF80006060C020C039801F000000000000000F8
:104F080000000000000000000000FF010603060684
:104F180006060606060606060603FE010600060045
:104F280006000600060006000F0000000000000052
:104F380000000000000000000000F00098010C03D1
:104F48000C020606060606060606060606060606F7
:104F580076064C028C038801F001800700030000EC
:104F680000000000000000000000FF010603060624
:104F78000606060606060603FE006600C600C6000C
:104F880086018601060306030F0E000000000000DC
:104F980000000000000000000000F8040C070604F0
:104FA800060406000E003C00F000C00300030006E3
:104FB8000206020606060E03F201000000000000C9
:104FC80000000000000000000000FE076204610805
:104FD80061086000600060006000600060006000C0
:104FE8006000600060006000F00000000000000049
:104FF800000000000000000000000F0E0604060478
:105008000604060406040604060406040604060448
:105018000604060406040C02F80100000000000063
:10502800000000000000000000001F0F0E060C0228
:105038000C020C020C011801180118011801B0002B
:10504800B000B000F0006000600000000000000048
:1050580000000000000000000000EF0E6604660477
:1050680066026602E602EC02EC02DC01DC01DC010D
:10507800DC019C0188008800880000000000000016
:10508800000000000000000000009E070C0318014B
:1050980018019800B000700060006000E000D000C7
:1050A800D001980188010C039E0700000000000051
:1050B800000000000000000000001F0F0E060C0298
:1050C8000C0118011801B000B00070006000600009
:1050D8006000600060006000F8010000000000004F
:1050E80000000000000000000000FC070403820329
:1050F8008001C001C000C0006000600030003000C6
:10510800180018041C040C02FE0300000000000034
:1051180000000000E0072000200020002000200000
:105128002000200020002000200020002000200077
:10513800200020002000200020002000E0070000C0
:10514800000000000000000004000800080008003B
:1051580010001000200020002000400040008000C7
:10516800800080000001000100020002000200042B
:1051780000000000FC0080008000800080008000AB
:105188008000800080008000800080008000800017
:10519800800080008000800080008000FC0000000B
:1051A80000000000E000B00108020000000000005C
:1051B80000000000000000000000000000000000E7
:1051C80000000000000000000000000000000000D7
:1051D80000000000000000000000000000000000C7
:1051E80000000000000000000000000000000000B7
:1051F8000000000000000000000000000000FF0F99
:10520800000000001800600000000000000000001E
:105218000000000000000000000000000000000086
:105228000000000000000000000000000000000076
:105238000000000000000000000000000000000066
:1052480000000000F0010C030C03E00338030C031A
:105258000603060306038E0B7C0F00000000000007
:10526800000000000000000008000E000C000C0008
:105278000C000C00CC013C031C060C060C060C06AA
:105288000C060C060C021C03F401000000000000D0
:105298000000000000000000000000000000000006
:1052A80000000000F0008C018C0186010600060059
:1052B800060006020C020C01F000000000000000CD
:1052C800000000000000000000028003000300034B
:1052D8000003000378038C030C030603060306038C
:1052E8000603060304038C07780100000000000091
:1052F80000000000000000000000000000000000A6
:1053080000000000E001180308060C06FC070C006A
:105318000C000C0018043802E00100000000000036
:1053280000000000000000000000C0036006300616
:1053380030003000FE033000300030003000300014
:105348003000300030003000FC0100000000000098
:105358000000000000000000000000000000000045
:1053680000000000F00E98090C030C030C039801D0
:10537800F8000C007C00F803060606060E07F80184
:10538800000000000000000008000E000C000C00E7
:105398000C000C00EC011C030C030C030C030C03A5
:1053A8000C030C030C030C039E0700000000000014
:1053B8000000000000000000000060006000000025
:1053C800000000007C006000600060006000600079
:1053D8006000600060006000FC0300000000000046
:1053E80000000000000000000000800180010000B3
:1053F80000000000F001800180018001800180012F
:10540800800180018001800180018001CC007C0046
:10541800000000000000000008000E000C000C0056
:105428000C000C00CC038C00CC004C006C007C0001
:10543800DC00CC008C018C019E07000000000000FD
:10544800000000000000000040007C0060006000D8
:105458006000600060006000600060006000600044
:105468006000600060006000FC03000000000000B5
:105478000000000000000000000000000000000024
:10548800000000007707EE066606660666066606F2
:105498006606660666066606EF0E00000000000057
:1054A80000000000000000000000000000000000F4
:1054B80000000000CE013C030C030C030C030C039A
:1054C8000C030C030C030C039E07000000000000F3
:1054D80000000000000000000000000000000000C4
:1054E80000000000F00098010C03060606060606F8
:1054F800060606060C030C03F0000000000000007E
:105508000000000000000000000000000000000093
:1055180000000000EE011C030C060C060C060C062D
:105528000C060C060C031C03EC010C000C003E00DE
:105538000000000000000000000000000000000063
:105548000000000078028C030C0306030603060320
:105558000603060304038C03780300030003C00753
:105568000000000000000000000000000000000033
:10557800000000009F07580638001800180018009F
:105588001800180018001800FF00000000000000B4
:105598000000000000000000000000000000000003
:1055A80000000000F00718060C040C003800F00199
:1055B8008003040604060C03FC0100000000000040
:1055C8000000000000000000000000002000200093
:1055D80030003000FE013000300030003000300074
:1055E8003000300030023002E0010000000000000E
:1055F80000000000000000000000000000000000A3
:10560800000008028E030C030C030C030C030C03AC
:105618000C030C030C039C07780100000000000039
:105628000000000000000000000000000000000072
:10563800000000003E0F1C0618021802300130015D
:105648003001E000E000E000400000000000000041
:105658000000000000000000000000000000000042
:1056680000000000EF0DC604C604E604EC04AC0319
:105678009C039C039C030801080100000000000033
:105688000000000000000000000000000000000012
:1056980000000000BE0718019801B000700060000B
:1056A800E000D00098018803DE0700000000000039
:1056B80000000000000000000000000000000000E2
:1056C80000000000BE071C0118011801B000B0005E
:1056D800B0006000600040002000200014001C00A2
:1056E80000000000000000000000000000000000B2
:1056F80000000000FC038401C401C000E000600059
:105708007000300438041806FC0300000000000094
:1057180000000000000380018000800080008000FD
:10572800800080008000C0002000C0008000800051
:10573800800080008000800080008001000300005D
:105748004000400040004000400040004000400051
:105758004000400040004000400040004000400041
:105768004000400040004000400040004000400031
:10577800000000000C0018001000100010001000BD
:105788001000100010003000400030001000100021
:105798001000100010001000100018000C0000008D
:1057A80000001C00240042088204000700000000DA
:1057B80000000000000000000000000000000000E1
:1057C80000000000000000000000000000000000D1
:1057D80000000000000000000000000000000000C1
:1057E80000000000000000000000000000000000B1
:1057F80000000000000000000000000000000000A1
:105808000000000000000000000000000000000090
:1058180000000000000000000000C001C001C0013D
:10582800C001C001C001C00180008000800080006C
:10583800800080008000000000000000000080015F
:10584800C003C00380010000000000000000000049
:10585800000000000000E01CE01CF01E700E38077D
:105868001803080184000000000000000000000088
:105878000000000000000000000000000000000020
:105888000000000000000000000000000000000010
:1058980000000000000000000000000020102010A0
:1058A800201020102010FE7FFE7F1008100810081E
:1058B8001008100810081008FE7FFE7F080408046E
:1058C80008040804080400000000000000000000AC
:1058D800000000000000000000010001C00760197E
:1058E800103118311839183938017001E001C00336
:1058F8008007000F001D003900311C311C310C31AC
:105908000C11180DE0070001000100010000000063
:105918000000000000000000000000001C10361805
:105928006308630C63046304630263026301361D46
:105938009C37802280634063406320632063306328
:1059480010221836081C00000000000000000000AB
:10595800000000000000000000000000F0009801B6
:105968008C018C018C018C018C00CC007800183ED5
:105978001C083608320863046304C304C303834362
:1059880006438E26781C000000000000000000007E
:105998000000000000001C003C003C00300030000B
:1059A80010000C00060000000000000000000000CD
:1059B80000000000000000000000000000000000DF
:1059C80000000000000000000000000000000000CF
:1059D8000000000000000040002000100008000C3B
:1059E8000004000600030003000380018001800119
:1059F8008001800180018001800100030003000311
:105A080000060006000C00080010002000400000FE
:105A18000000000000000200040008001000300030
:105A280020006000C000C000C0008001800180012B
:105A380080018001800180018001C000C000C00099
:105A48006000600030001000080004000200000040
:105A5800000000000000000000000000000000003E
:105A680000018003800300011C713C79783DC00768
:105A78000001C007783D3C791C7100018003800358
:105A8800800100000000000000000000000000008D
:105A980000000000000000000000000000000000FE
:105AA80000000001000100010001000100010001E7
:105AB800FC7F00010001000100010001000100015C
:105AC80000000000000000000000000000000000CE
